:0E0000000C942F000C9400000C9400000C9443
:10000E0000000C9400000C9400000C9400000C9462
:10001E0000000C9400000C9400000C9400000C9452
:10002E0000000C9400000C9400000C9400000C9442
:10003E0000000C9400000C9400000C9400000C9432
:10004E0000000C94000080C00200860154000000E5
:10005E00F894EE27ECBBF1E0FBBFEBBFE5BF8DE004
:10006E00A2E0BB27ED938A95E9F780E094E0A0E645
:10007E00ED930197E9F7E6E5F0E08591959100970C
:10008E0061F0A591B59105901590BF01F001059015
:10009E000D920197E1F7FB01F0CFEFE5EDBFE4E044
:1000AE00EEBFC0E6D1E00C941E03AA931A930E94F1
:1000BE002B040E94AA040E942B04A0EC0E94300480
:1000CE00A9810E9430040E94AA040E942B04A1EC74
:1000DE000E943004A0E00E94C3041E2F0E942B0435
:1000EE000E94B9040E942B04E12F18810C94D503B1
:1000FE00AA93E881E064E7B98BE18A95F1F7369A25
:10010E00349BFECF349AE4B1F5B10C942904A1E0EE
:10011E00CCDFF0E0E619F7092F010024401450045B
:10012E001CF4E150FF4F2F01E0E8F0E0E415F50577
:10013E0024F4EFEFF0E04E1A5F0AE0E8F0E04E161E
:10014E005F060CF4220100244014500474F0E8E021
:10015E000E943304ABE20E94E303D2010E943604F4
:10016E00D2010E944204D20114C000244014500453
:10017E00A4F4E8E00E943304ADE20E94E3030E947F
:10018E004E040E9436040E944E040E9442040E94B5
:10019E004E04EAE0F0E00E94550408958824992464
:1001AE00E0E1F0E08E169F060CF043C0F4010E94D1
:1001BE005A0411F4C49801C0C49AD401E2E0F0E0EC
:1001CE000E94600411F4C59801C0C59AD401E4E000
:1001DE00F0E00E94600411F4C69801C0C69AD401E2
:1001EE00E8E0F0E00E94600411F4C79801C0C79ADD
:1001FE00F4010E946304EA0FFB1FFF93EF93A0E04C
:10020E0077DFAF91BF91ED93FC93F4010E946304ED
:10021E00AE0FBF1F0D901C90F5010E9463040E944B
:10022E0068040E161F060CF45401F40131964F01AA
:10023E00B7CFE0E00E943304D5010E944204D501FD
:10024E000E946D04AAE30E94E303F5010E94630479
:10025E000E946804DF01E8EEF3E00E942405DF014E
:10026E000E946D04F5010E9463040E946804DF0180
:10027E000E943604F5010E9463040E946804DF01A7
:10028E000E944204F5010E9463040E946804DF018B
:10029E000E946D04A1E02CDF6F01E0E00E9470046B
:1002AE00D6010E943604D6010E944204D6010E9455
:1002BE006D04A2E01DDFE0938001F0938101E4E084
:1002CE000E9470040E9473040E9436040E947304FC
:1002DE000E9442040E9473040E946D04A3E008DF92
:1002EE00E0938201F0938301E8E00E9470040E9483
:1002FE0078040E9436040E9478040E9442040E94F0
:10030E0078040E946D04E0918201F0918301EC1952
:10031E00FD09E0938401F09385010895BA93AA93A1
:10032E00F201AE81BF81EA0FFB1FEE83FF83F20164
:10033E00AC81BD81EA0FFB1FEC83FD83F201AA8124
:10034E00BB81EA0FFB1FEA83FB83F201A881B9810F
:10035E00EA0FFB1FE883F983AE81BF81A030E1E095
:10036E00BE0724F0EFEFF0E0EE83FF83AE81BF8196
:10037E00A130EFEFBE0724F4E1E0FFEFEE83FF8341
:10038E00AC81BD81A030E1E0BE0724F0EFEFF0E0DC
:10039E00EC83FD83AC81BD81A130EFEFBE0724F469
:1003AE00E1E0FFEFEC83FD83AA81BB81A030E1E0A9
:1003BE00BE0724F0EFEFF0E0EA83FB83AA81BB8156
:1003CE00A130EFEFBE0724F4E1E0FFEFEA83FB83F9
:1003DE00A881B981A030E1E0BE0724F0EFEFF0E094
:1003EE00E883F983A881B981A130EFEFBE0724F429
:1003FE00E1E0FFEFE883F983AE81BF810E945305F0
:10040E001CF49398EE8108C0AE81BF810E94530503
:10041E0024F0939AEE81E150E3BDAC81BD810E9440
:10042E00530524F49298EC81FD810AC0AC81BD8104
:10043E000E9453053CF0929AEC81FD81E150FF4FF2
:10044E00FBBDEABDAA81BB810E94530524F491989D
:10045E00EA81FB810AC0AA81BB810E9453053CF050
:10046E00919AEA81FB81E150FF4FF9BDE8BDA88169
:10047E00B9810E9453051CF49098E88108C0A881A8
:10048E00B9810E94530524F0909AE881E150ECBFA7
:10049E00289608950A2C0B2839F40E947D040E9498
:1004AE007D04E1E0FFEFBDC0E1E0F0E0EA15FB0501
:1004BE0049F40E947D040E9482040E948704A0E8F1
:1004CE00B0E0B3C0E2E0F0E0EA15FB0549F40E94AB
:1004DE007D040E9487040E948704AFEFB0E0A5C0A0
:1004EE00E3E0F0E0EA15FB0549F40E948C040E945B
:1004FE0087040E948204AFEFB0E097C0E4E0F0E022
:10050E00EA15FB0549F40E9491040E9487040E949B
:10051E009104AFEFB0E089C0E5E0F0E0EA15FB052D
:10052E0049F40E9482040E9487040E948C04AFEF5B
:10053E00B0E07BC0E6E0F0E0EA15FB0549F40E946E
:10054E0087040E9487040E947D04AFEFB0E06DC067
:10055E00E7E0F0E0EA15FB0549F40E9487040E94EB
:10056E0082040E947D04A0E8B0E05FC0E8E0F0E005
:10057E00EA15FB0549F40E9487040E9491040E942B
:10058E007D04A0E0B0E051C0E9E0F0E0EA15FB0523
:10059E0049F40E9482040E9487040E948C04A9E1FF
:1005AE00B0E043C0EAE0F0E0EA15FB0531F4A8D173
:1005BE00A7D19CD1AFEFB0E038C0EBE0F0E0EA1588
:1005CE00FB0531F49DD197D191D1A0E8B0E02DC0BB
:1005DE00ECE0F0E0EA15FB0531F492D19BD186D127
:1005EE00A0E0B0E022C0EDE0F0E0EA15FB0531F44A
:1005FE0087D18BD17BD1A0E8BFEF17C0EEE0F0E042
:10060E00EA15FB0529F47CD171D1EFEFF0E009C0BA
:10061E00EFE0F0E0EA15FB0549F46DD167D1E0E8B3
:10062E00F0E0FA93EA93A1E0BFEF78DE0895E0E000
:10063E00EABBEBBBECEFE7BBE0E0E8BBE4BBE5BB42
:10064E00EFEFE1BBE0E0E2BBEBE6E3BFE0E0E2BFF1
:10065E00ECBFE1EAEFBDEBE0EEBDE0E0EDBDECBDE1
:10066E00E7BDE6BDEBBDEABDE9BDE8BDE2BDECE62A
:10067E00E5BDE0E0E4BDE3BDE9BFE5BFE4BFEAB937
:10068E00E0E8E8B9E0E4E7B9E7E8E6B9E0E0E0BFC2
:10069E00EDB9E6BF0E94A504A0E1ADD0A8EBBBE08A
:1006AE000E94F6049B9B04C0A1E0FFDC6E2E772413
:1006BE002EDD74DDE4E1F0E0E415F5052CF0ECEE52
:1006CE00FFEF4E165F060CF406C0F201ACEFBFEF63
:1006DE000E940C0503C0F2010E9400052F01F501D6
:1006EE00EBD0EFD0E032A3E0FA0714F4D3DE25C04E
:1006FE00F3D0A83CE0E0BE07D4F4A0918401B09101
:10070E008501E1E0FFEFEA1BFB0B09D1EF5FF04043
:10071E0006D1E150FF4FFA93EA93A0918401B09174
:10072E008501EFEFF0E0EA1BFB0BDF0105C0F2D015
:10073E00F1D0F0D0A0E0B0E0F1DDB4CFFFCFAA93BE
:10074E00E5B3EF70AE2FE881E07FEA2BE5BB8DE0DD
:10075E008A95F1F7AA9A8DE08A95F1F7AA988DE01D
:10076E008A95F1F76FC0AA93A881E9DFE881E29537
:10077E00E883A881E4DF85E88A95F1F763C0AA9340
:10078E00E881F0E0EA57FE4FE081A981AE0FEBDF82
:10079E00E981E0938A01E881E0938B012296089526
:1007AE00A2E0C4D0ACE0DFDFA1E0C0D0E0E0E09397
:1007BE008B01E0938A010895AA93A881AA3031F0A3
:1007CE00E0918C01A0918A01AE1758F0E0E0EA9317
:1007DE00A0918B01AF5FA0938B01D1DFA881AA30CE
:1007EE0089F1E0918A01EF5FE0938A01A89AA881CE
:1007FE00BADFA89827C0AA93E4B3E06FE4BBA29A2D
:10080E00A09AA19AAA98A898A998E881E0938C0139
:10081E00E058E0938801E881E054E0938901A4E177
:10082E00B0E00E94F60487D086D085D0A0E287DFA4
:10083E000BD0A8E298DFA4E096DFA5E894DFA6E04F
:10084E0092DFAEDF2196089588EC90E00197F1F7E4
:10085E0008950E94DE04F8CFEA93A0E090CFE4E67C
:10086E00F0E00E942405DF01EAE0F0E00E94290595
:10087E00E05DAE2FA1CFEAE0F0E00E942405DF019B
:10088E00EAE0F0E00E942905E05DAE2F95CFF2017F
:10089E00AFEFBFEF0E940C05DF0108950E942905FE
:1008AE00E05DAE2F89CFA1E0B0E00E943705E030C9
:1008BE0008950E942405F7CFA0E6B1E0EE0FFF1FCA
:1008CE000895AE0FBF1F0E944F050895EAE0F0E0B5
:1008DE00E5CFEA93A1E053CFA0918001B0918101C1
:1008EE000895A0918201B09183010895EFEFF0E099
:1008FE00FA93EA930895E0E8FFEFFA93EA930895E6
:10090E00E1E0FFEFFA93EA930895E0E8F0E0FA935E
:10091E00EA930895E0E0F0E0FA93EA930895FA93EB
:10092E00EA93E0918401F091850108951CDFA3E024
:10093E00B0E00C94F604A0E302DF86CFC098C19815
:10094E00B89AB99815C0B998B898EE270000B19B1F
:10095E000895B09B089504D0B99A02D0B89AE1E0F8
:10096E006DE007C0B99AB89A03D0B898F9DFB99874
:10097E006BE16A95F1F7089578E0B898F1DFB09BD6
:10098E00FECFEEDF8894B1990894B89AF1DFEE1F8E
:10099E007A9599F77A2F772311F4B99801C0B99AFD
:1009AE00DFDFB898E5DFB89ADBDFB998D9CF78E00A
:1009BE00AA0F10F4B99801C0B99ADADFB898D0DF4F
:1009CE00B09BFECFCDDFB89A7A9591F7B998C8DF74
:1009DE00B898CEDFE1E0B199EE27B89AC1CF109664
:1009EE0039F080ED97E00197F1F7A8951197C9F7C7
:1009FE000895F195E195F0400895FA9FF02DEB9F43
:100A0E00F00DEA9FE02DF10D089534D0F6DF0EF4CF
:100A1E00F0DF08950024112490E1AA0FBB1F001CE3
:100A2E00111C0E1A1F0A18F40E0E1F1E01C0A16013
:100A3E009A9599F7FD01D00108951CD0EBDF0EF4C5
:100A4E00D8DF0895E894B7FF04C0A095B09511962D
:100A5E006894F7FDCEDFDEDFFD010EF4CADF0895E8
:100A6E00E894F7FF02C0C5DF6894EA23FB230EF477
:100A7E00C0DF0895E894F7FF02C0BBDF6894B7FFAC
:100A8E0006C0A095B095119600F8039400FA08954B
:100A9E00ED91FC911197089500240A160B06089506
:00000001FF
