:0A0000000C942F000C9400000C94E7
:10000A0000000C9400000C9400000C9400000C9466
:10001A0000000C9400000C9400000C9400000C9456
:10002A0000000C9400000C9400000C9400000C9446
:10003A0000000C9400000C9400000C9400000C9436
:10004A0000000C9400000C94000080C002008C0197
:10005A0054000000F894EE27ECBBF1E0FBBFEBBFC5
:10006A00E5BF8DE0A2E0BB27ED938A95E9F780E032
:10007A0094E0A0E6ED930197E9F7E6E5F0E08591D3
:10008A009591009761F0A591B59105901590BF01E2
:10009A00F00105900D920197E1F7FB01F0CFEFE532
:1000AA00EDBFE4E0EEBFC0E6D1E00C946D03AA9385
:1000BA001A930E944A050E94FF050E944A05A0EC75
:1000CA000E944F05A9810E944F050E94FF050E94C8
:1000DA004A05A1EC0E944F05A0E00E9418061E2FB7
:1000EA000E944A050E940E060E944A05E12F1881C5
:1000FA000C94F404AA93E881E064E7B98BE18A9549
:10010A00F1F7369A349BFECF349AE4B1F5B10C94E8
:10011A004805A1E0CCDF0E2E1124A0E0B0E00E9439
:10012A0052052D0100244014500424F4F201E15038
:10013A00FF4F2F01E0E8F0E0E415F50524F4EFEFB6
:10014A00F0E04E1A5F0AE0E8F0E04E165F060CF4A3
:10015A00220100244014500474F0E8E00E9458057B
:10016A00ABE20E940205D2010E945B05D2010E9405
:10017A006705D20114C0002440145004A4F4E8E036
:10018A000E945805ADE20E9402050E9473050E9472
:10019A005B050E9473050E9467050E947305EAE0E9
:1001AA00F0E00E947A05089566247724E0E1F0E001
:1001BA006E167F060CF043C0F3010E947F0511F40E
:1001CA00C49801C0C49AD301E2E0F0E00E94850518
:1001DA0011F4C59801C0C59AD301E4E0F0E00E9489
:1001EA00850511F4C69801C0C69AD301E8E0F0E08B
:1001FA000E94850511F4C79801C0C79AF3010E94AD
:10020A008805EA0FFB1FFF93EF93A0E073DFAF911E
:10021A00BF91ED93FC93F3010E948805AE0FBF1FB7
:10022A000D901C90F4010E9488050E948D050E16FF
:10023A001F060CF44301F30131963F01B7CFE0E00A
:10024A000E945805D4010E946705D4010E949205B4
:10025A00AAE30E940205F4010E9488050E948D0506
:10026A00DF01E8EEF3E00E947906DF010E949205C1
:10027A00F4010E9488050E948D05DF010E945B053A
:10028A00F4010E9488050E948D05DF010E9467051E
:10029A00F4010E9488050E948D05DF010E949205E3
:1002AA00A1E028DF5F01E0E00E949505D5010E94E8
:1002BA005B05D5010E946705D5010E949205A2E05F
:1002CA0019DF6F01E4E00E949505D6010E945B05E3
:1002DA00D6010E946705D6010E949205A3E00ADFB3
:1002EA00E0938001F0938101E8E00E9495050E9465
:1002FA0098050E945B050E9498050E9467050E9466
:10030A0098050E949205A4E0F5DE0F01A2E0B0E094
:10031A000E945205A0938401B0938501EDE00E94EA
:10032A0058050E949D050E945B050E949D050E943A
:10033A006705A5E0DFDE0F01A4E0B0E00E945205E8
:10034A00A0938A01B0938B01EBE00E9495050E946D
:10035A00A2050E945B050E94A2050E946705A6E00D
:10036A00C9DE0F01A6E0B0E00E945205A093880101
:10037A00B0938901EEE00E9495050E94A7050E94AC
:10038A005B050E94A7050E946705A7E0B3DE0F017F
:10039A00A8E0B0E00E945205A0938601B0938701BD
:1003AA00EAE00E9458050E94AC050E945B050E9483
:1003BA00AC050E946705E0918001F0918101EA197C
:1003CA00FB09E0938201F09383010895BA93AA93FB
:1003DA00F201AE81BF81EA0FFB1FEE83FF83F201B8
:1003EA00AC81BD81EA0FFB1FEC83FD83F201AA8178
:1003FA00BB81EA0FFB1FEA83FB83F201A881B98163
:10040A00EA0FFB1FE883F983AE81BF81A030E1E0E8
:10041A00BE0724F0EFEFF0E0EE83FF83AE81BF81E9
:10042A00A130EFEFBE0724F4E1E0FFEFEE83FF8394
:10043A00AC81BD81A030E1E0BE0724F0EFEFF0E02F
:10044A00EC83FD83AC81BD81A130EFEFBE0724F4BC
:10045A00E1E0FFEFEC83FD83AA81BB81A030E1E0FC
:10046A00BE0724F0EFEFF0E0EA83FB83AA81BB81A9
:10047A00A130EFEFBE0724F4E1E0FFEFEA83FB834C
:10048A00A881B981A030E1E0BE0724F0EFEFF0E0E7
:10049A00E883F983A881B981A130EFEFBE0724F47C
:1004AA00E1E0FFEFE883F983AE81BF810E94D106C4
:1004BA001CF49398EE8108C0AE81BF810E94D106D8
:1004CA0024F0939AEE81E150E3BDAC81BD810E9494
:1004DA00D10624F49298EC81FD810AC0AC81BD81D9
:1004EA000E94D1063CF0929AEC81FD81E150FF4FC7
:1004FA00FBBDEABDAA81BB810E94D10624F4919872
:10050A00EA81FB810AC0AA81BB810E94D1063CF024
:10051A00919AEA81FB81E150FF4FF9BDE8BDA881BC
:10052A00B9810E94D1061CF49098E88108C0A8817C
:10053A00B9810E94D10624F0909AE881E150ECBF7B
:10054A0028960895BA93AA93E881F981309739F4E5
:10055A000E94B1050E94B105E1E0FFEFB2C0A88197
:10056A00B981119739F40E94B1050E94B605A0E835
:10057A00BFEFABC0A881B981129739F40E94B105C7
:10058A000E94BF05A0E0B0E0A0C0A881B98113977E
:10059A0049F40E94B1050E94C8050E94CD05A0E851
:1005AA00B0E093C0A881B981149749F40E94B105BB
:1005BA000E94CD050E94CD05AFEFB0E086C0A881AC
:1005CA00B981159739F40E94B6050E94C805AFEFA4
:1005DA00B0E07BC0A881B981169739F40E94BF05A3
:1005EA000E94D205AFEFB0E070C0A881B981179719
:1005FA0049F40E94C8050E94CD050E94D705AFEFB5
:10060A00B0E063C0A881B981189749F40E94CD056A
:10061A000E94CD050E94B105AFEFB0E056C0A88197
:10062A00B981199749F40E94CD050E94C8050E9414
:10063A00B105A0E8B0E049C0A881B9811A9749F488
:10064A000E94CD050E94D2050E94B105A0E0B0E04B
:10065A003CC0A881B9811B9749F40E94CD050E942C
:10066A00D7050E94B105A0E8BFEF2FC0A881B981C4
:10067A001C9739F40E94CD050E94B105EFEFF0E016
:10068A0020C0A881B9811D9739F40E94C8050E942B
:10069A00B105E0E8F0E015C0A881B9811E9739F4E8
:1006AA000E94D2050E94B105E0E0F0E00AC0A881EC
:1006BA00B9811F9759F40E94D7050E94B105E0E855
:1006CA00FFEFFA93EA93A1E0BFEF80DE0C94F40403
:1006DA00E0E0EABBEBBBECEFE7BBE0E0E8BBE4BB86
:1006EA00E5BBEFEFE1BBE0E0E2BBEBE6E3BFE0E056
:1006FA00E2BFECBFE1EAEFBDEBE0EEBDE0E0EDBD4D
:10070A00ECBDE7BDE6BDEBBDEABDE9BDE8BDE2BDB6
:10071A00ECE6E5BDE0E0E4BDE3BDE9BFE5BFE4BF6B
:10072A00EAB9E0E8E8B9E0E4E7B9E7E8E6B9E0E021
:10073A00E0BFEDB9E6BF0E94FA05A0E17DD1A8EBC2
:10074A00BBE00E944B069B9B1FC0A1E0B0DCA0E06F
:10075A00B0E0F0E00E94B806A7E0CCDCA8E0B0E088
:10076A000E94B806A4E0C6DCA2E0B0E00E94B80687
:10077A00A6E0C0DCA6E0B0E00E94B806A5E0BADCBC
:10078A00A4E0B0E00E94B806C4DC0EDDE4E1F0E0CB
:10079A00E415F5052CF0ECEEFFEF4E165F060CF4AF
:1007AA0006C0F201ACEFBFEF0E94610603C0F2017E
:1007BA000E9455062F01F401A6D1AAD1E032A3E086
:1007CA00FA070CF0AEC0B4D1D397DCF10E94DC0575
:1007DA0024F00024801490040CF432C0E5DC99DC87
:1007EA00A2D1A139E1E0BE0744F4A2D1D3971CF407
:1007FA00A9D1D3970CF001C009C00E94E1050E945B
:10080A00E6050E94E605A6E5BFEF18C0A0D1D3977A
:10081A0024F0AAE0B0E096DE12C08FD1D39724F07C
:10082A00AEE0B0E08FDE0BC07ED1AA3FE0E0BE07AB
:10083A003CF0B3D1B2D1B1D1A0E0B0E0C7DDC6CFB0
:10084A003FC080D1D397E4F1E8E0F0E08E169F062E
:10085A002CF0EFE0F0E08E169F0624F40024081432
:10086A00090471F5A1DC55DCE0E9F1E0EA15FB05C4
:10087A0044F05ED1D3971CF465D1D3970CF001C034
:10088A0005C09FD199D198D1AAEA17C060D1D39750
:10089A0024F0A6E0B0E056DE12C04FD1D39724F080
:1008AA00A2E0B0E04FDE0BC0EAEFF0E0AE16BF0602
:1008BA003CF073D172D171D1A0E0B0E087DDC4CF32
:1008CA00082C092819F4A0E0B0E029C0E1E0F0E022
:1008DA00E815F90519F4A1E0B0E021C0EFE0F0E075
:1008EA00E815F90519F4AFE0B0E019C0E2E0F0E06C
:1008FA00E815F90519F4A3E0B0E011C0EEE0F0E064
:10090A00E815F90519F4ADE0B0E009C050D11CF0C2
:10091A00D401129604C04BD11CF4D401129712DEF2
:10092A0025C0E8ECF0E0CE16DF06D4F4A0918201EF
:10093A00B0918301E6E5FFEFEA1BFB0B47D1EA5AC8
:10094A00F04044D1E655FF4FFA93EA93A091820111
:10095A00B0918301EAEAF0E0EA1BFB0BDF0105C074
:10096A001CD11BD11AD1A0E0B0E030DDDCD0F501FA
:10097A00EA1BFB0BE0938201F0938301E4CEFFCFE5
:10098A00AA93E5B3EF70AE2FE881E07FEA2BE5BBCF
:10099A008DE08A95F1F7AA9A8DE08A95F1F7AA98DF
:1009AA008DE08A95F1F76FC0AA93A881E9DFE88103
:1009BA00E295E883A881E4DF85E88A95F1F763C0C8
:1009CA00AA93E881F0E0E457FE4FE081A981AE0FD7
:1009DA00EBDFE981E0939001E881E09391012296AF
:1009EA000895A2E0FAD0ACE0DFDFA1E0F6D0E0E0C3
:1009FA00E0939101E09390010895AA93A881AA3007
:100A0A0031F0E0919201A0919001AE1758F0E0E028
:100A1A00EA93A0919101AF5FA0939101D1DFA881E0
:100A2A00AA3089F1E0919001EF5FE0939001A89AD2
:100A3A00A881BADFA89827C0AA93E4B3E06FE4BB01
:100A4A00A29AA09AA19AAA98A898A998E881E0934C
:100A5A009201E058E0938E01E881E054E0938F011F
:100A6A00A4E1B0E00E944B06BDD0BCD0BBD0A0E24E
:100A7A0087DF0BD0A8E298DFA4E096DFA5E894DF31
:100A8A00A6E092DFAEDF2196089588EC90E0019708
:100A9A00F1F708950E943306F8CF0E94A806D00104
:100AAA00AE1BBF0B0895EA93A0E08ACFE4E6F0E01C
:100ABA000E947906DF01EAE0F0E00E947E06E05D2E
:100ACA00AE2F9BCFEAE0F0E00E947906DF01EAE070
:100ADA00F0E00E947E06E05DAE2F8FCFF201AFEF0D
:100AEA00BFEF0E946106DF0108950E947E06E05D65
:100AFA00AE2F83CFA1E0B0E00E948C06E0300895CB
:100B0A000E947906F7CFA0E6B1E0EE0FFF1F089525
:100B1A00AE0FBF1F0E94A4060895EAE0F0E0E5CFF9
:100B2A00EA93A1E04DCFA0918001B091810108958F
:100B3A00A0918401B09185010895A0918A01B09194
:100B4A008B010895A0918801B09189010895A0911F
:100B5A008601B09187010895EFEFF0E0FA93EA93E6
:100B6A000895E0E8F0E0FA93EA93E1E0FFEFFA9300
:100B7A00EA930895E0E0F0E0FA93EA93E1E0FFEF08
:100B8A00FA93EA930895E0E8FFEFFA93EA93089557
:100B9A00E1E0FFEFFA93EA930895E0E0F0E0FA93D8
:100BAA00EA930895E0E8F0E0FA93EA930895E8E01A
:100BBA00F0E0E815F9050895E6E5FFEFFA93EA9300
:100BCA000895EAEAF0E0FA93EA930895FA93EA9329
:100BDA00E0918201F09183010895E6DEA3E0B0E09E
:100BEA000C944B06A0E3CCDE50CFC098C198B89ABB
:100BFA00B99815C0B998B898EE270000B19B089526
:100C0A00B09B089504D0B99A02D0B89AE1E06DE099
:100C1A0007C0B99AB89A03D0B898F9DFB9986BE1C6
:100C2A006A95F1F7089578E0B898F1DFB09BFECFA6
:100C3A00EEDF8894B1990894B89AF1DFEE1F7A959D
:100C4A0099F77A2F772311F4B99801C0B99ADFDF9F
:100C5A00B898E5DFB89ADBDFB998D9CF78E0AA0F60
:100C6A0010F4B99801C0B99ADADFB898D0DFB09B0E
:100C7A00FECFCDDFB89A7A9591F7B998C8DFB898C0
:100C8A00CEDFE1E0B199EE27B89AC1CF109639F0DC
:100C9A0080ED97E00197F1F7A8951197C9F70895A4
:100CAA00F195E195F0400895FA9FF02DEB9FF00D34
:100CBA00EA9FE02DF10D089534D0F6DF0EF4F0DF4F
:100CCA0008950024112490E1AA0FBB1F001C111CD7
:100CDA000E1A1F0A18F40E0E1F1E01C0A1609A9563
:100CEA0099F7FD01D00108951CD0EBDF0EF4D8DF8F
:100CFA000895E894B7FF04C0A095B095119668943A
:100D0A00F7FDCEDFDEDFFD010EF4CADF0895E894B9
:100D1A00F7FF02C0C5DF6894EA23FB230EF4C0DFA5
:100D2A000895E894F7FF02C0BBDF6894B7FF06C0D6
:100D3A00A095B095119600F8039400FA0895ED91E4
:100D4A00FC9111970895119602D0FE2F1197E199FF
:100D5A00FECFFF93FFB7F894AEBBBFBBE09AEDB3EB
:100D6A00FFBFFF91089507D01196EF93EF2F03D09D
:100D7A00EF9111970895E19B02C0A895FCCF9FB708
:100D8A00F894AEBBBFBBE09A8DB3E81719F0EDBB80
:100D9A00E29AE19A9FBF089500240A160B06089565
:00000001FF
