:0C0000000C942F000C9400000C940000E5
:10000C000C9400000C9400000C9400000C94000064
:10001C000C9400000C9400000C9400000C94000054
:10002C000C9400000C9400000C9400000C94000044
:10003C000C9400000C9400000C9400000C94000034
:10004C000C9400000C94000080C002008601540047
:10005C000000F894EE27ECBBF1E0FBBFEBBFE5BF73
:10006C008DE0A2E0BB27ED938A95E9F780E094E060
:10007C00A0E6ED930197E9F7E6E5F0E0859195911F
:10008C00009761F0A591B59105901590BF01F00115
:10009C0005900D920197E1F7FB01F0CFEFE5EDBF75
:1000AC00E4E0EEBFC0E6D1E00C940702AA931A93E9
:1000BC000E94FF030E9481040E94FF03A0EC0E9497
:1000CC000404A9810E9404040E9481040E94FF037D
:1000DC00A1EC0E940404A0E00E949A041E2F0E942E
:1000EC00FF030E9490040E94FF03E12F18810C94DF
:1000FC00A903AA93E881E064E7B98BE18A95F1F74B
:10010C00369A349BFECF349AE4B1F5B10C94FD03CE
:10011C0044245524E0E1F0E04E165F060CF043C099
:10012C00F2010E94070411F4C49801C0C49AD201D0
:10013C00E2E0F0E00E940D0411F4C59801C0C59AEC
:10014C00D201E4E0F0E00E940D0411F4C69801C065
:10015C00C69AD201E8E0F0E00E940D0411F4C798B1
:10016C0001C0C79AF2010E941004EA0FFB1FFF9313
:10017C00EF93A0E0BEDFAF91BF91ED93FC93F20142
:10018C000E941004AE0FBF1F0D901C90F3010E9433
:10019C0010040E9415040E161F060CF43201F20115
:1001AC0031962F01B7CFE0E00E941A04D3010E94D0
:1001BC001D04D3010E942904AAE30E94B703F30192
:1001CC000E9410040E941504DF01E8EEF3E00E9487
:1001DC003004F3010E9410040E941504DF010E94F8
:1001EC003404F3010E9410040E941504DF010E94E4
:1001FC001D04F3010E9410040E941504DF010E94EB
:10020C002904A1E076DF6F01E0E00E943704D601FB
:10021C000E943404D6010E941D04D6010E942904B8
:10022C00A2E067DFE0938001F0938101E4E00E949B
:10023C0037040E943A040E9434040E943A040E943B
:10024C001D040E943A040E942904A3E052DFE093AB
:10025C008201F0938301E8E00E9437040E943F047E
:10026C000E9434040E943F040E941D040E943F041B
:10027C000E942904E0918201F0918301EC19FD099F
:10028C00E0938401F09385010895BA93AA93F40145
:10029C00AE81BF81EA0FFB1FEE83FF83F401AC81BB
:1002AC00BD81EA0FFB1FEC83FD83F401AA81BB81A6
:1002BC00EA0FFB1FEA83FB83F401A881B981EA0FE3
:1002CC00FB1FE883F983AE81BF81A030E1E0BE075C
:1002DC0024F0EFEFF0E0EE83FF83AE81BF81A1301D
:1002EC00EFEFBE0724F4E1E0FFEFEE83FF83AC8178
:1002FC00BD81A030E1E0BE0724F0EFEFF0E0EC832D
:10030C00FD83AC81BD81A130EFEFBE0724F4E1E0A9
:10031C00FFEFEC83FD83AA81BB81A030E1E0BE0737
:10032C0024F0EFEFF0E0EA83FB83AA81BB81A130DC
:10033C00EFEFBE0724F4E1E0FFEFEA83FB83A88133
:10034C00B981A030E1E0BE0724F0EFEFF0E0E883E4
:10035C00F983A881B981A130EFEFBE0724F4E1E065
:10036C00FFEFE883F983AE81BF810E942A051CF45C
:10037C009398EE8108C0AE81BF810E942A0524F0BB
:10038C00939AEE81E150E3BDAC81BD810E942A05B8
:10039C0024F49298EC81FD810AC0AC81BD810E944D
:1003AC002A053CF0929AEC81FD81E150FF4FFBBD98
:1003BC00EABDAA81BB810E942A0524F49198EA81A6
:1003CC00FB810AC0AA81BB810E942A053CF0919A4C
:1003DC00EA81FB81E150FF4FF9BDE8BDA881B981ED
:1003EC000E942A051CF49098E88108C0A881B98164
:1003FC000E942A0524F0909AE881E150ECBF2896DF
:10040C000895E0E0EABBEBBBECEFE7BBE0E0E8BB58
:10041C00E4BBE5BBEFEFE1BBE0E0E2BBEBE6E3BF47
:10042C00E0E0E2BFECBFE1EAEFBDEBE0EEBDE0E007
:10043C00EDBDECBDE7BDE6BDEBBDEABDE9BDE8BD7C
:10044C00E2BDECE6E5BDE0E0E4BDE3BDE9BFE5BF40
:10045C00E4BFEAB9E0E8E8B9E0E4E7B9E7E8E6B90F
:10046C00E0E0E0BFEDB9E6BF0E947C04A0E198D1CA
:10047C009B9B04C0A1E01ADEAE2EBB24A1E016DECD
:10048C00F0E0EA19FB094F010024801490041CF4DD
:10049C00E150FF4F4F01E0E8F0E0E815F90524F4D6
:1004AC00EFEFF0E08E1A9F0AE0E8F0E08E169F0660
:1004BC000CF444010024801490045CF0E8E0B4D106
:1004CC00ABE24FD1D4010E943404D401B0D1D40199
:1004DC0010C00024801490049CF4E8E0A5D1ADE297
:1004EC0040D10E944404BAD10E944404A0D10E947D
:1004FC004404EAE0F0E00E940005E05DAE2F31D14B
:10050C0007DEE4E1F0E0E815F9052CF0ECEEFFEF86
:10051C008E169F060CF406C0F401ACEFBFEF0E94E0
:10052C00E30403C0F4010E94D7044F01F1DDF30191
:10053C0071D175D1E032A3E0FA070CF0AEC0062CF5
:10054C00072829F4A2D1A1D1E1E0FFEFA0C0E1E09E
:10055C00F0E0E615F70529F498D19CD1A0E0B0E0C5
:10056C009AC0E2E0F0E0E615F70531F48ED19BD1AC
:10057C009AD1AFEFB0E08FC0E3E0F0E0E615F705FD
:10058C0031F496D190D199D1AFEFB0E084C0E4E0D2
:10059C00F0E0E615F70529F47DD194D1AFEFB0E08A
:1005AC007AC0E5E0F0E0E615F70531F486D17BD1B1
:1005BC007FD1AFEFB0E06FC0E6E0F0E0E615F705F5
:1005CC0031F471D170D161D1AFEFB0E064C0E7E02C
:1005DC00F0E0E615F70531F466D16FD156D1A0E8FD
:1005EC00B0E059C0E8E0F0E0E615F70531F45BD176
:1005FC0069D14BD1A0E0B0E04EC0E9E0F0E0E615E7
:10060C00F70531F45AD14FD153D1AFEFB0E043C01D
:10061C00EAE0F0E0E615F70531F445D144D135D1E7
:10062C00AFEFB0E038C0EBE0F0E0E615F70531F4E1
:10063C003AD143D12AD1A0E8B0E02DC0ECE0F0E0F3
:10064C00E615F70531F42FD13DD11FD1A0E0B0E074
:10065C0022C0EDE0F0E0E615F70531F424D128D105
:10066C0014D1A0E8BFEF17C0EEE0F0E0E615F705F7
:10067C0029F419D10AD1EFEFF0E009C0EFE0F0E076
:10068C00E615F70549F41ED100D1E0E0F0E0FA934D
:10069C00EA93A1E0BFEFF9DD25C0E6D0A43BE0E092
:1006AC00BE07D4F4A0918401B0918501E1E0FFEF85
:1006BC00EA1BFB0B0CD1EF5FF04009D1E150FF4F6F
:1006CC00FA93EA93A0918401B0918501EFEFF0E0E9
:1006DC00EA1BFB0BDF0105C0F5D0F4D0F3D0A0E092
:1006EC00B0E0D3DDC5CEFFCFAA93E5B3EF70AE2F4C
:1006FC00E881E07FEA2BE5BB8DE08A95F1F7AA9AB9
:10070C008DE08A95F1F7AA988DE08A95F1F76FC084
:10071C00AA93A881E9DFE881E295E883A881E4DF68
:10072C0085E88A95F1F763C0AA93E881F0E0EA576F
:10073C00FE4FE081A981AE0FEBDFE981E0938A01E6
:10074C00E881E0938B0122960895A2E0C7D0ACE03B
:10075C00DFDFA1E0C3D0E0E0E0938B01E0938A01FE
:10076C000895AA93A881AA3031F0E0918C01A09150
:10077C008A01AE1758F0E0E0EA93A0918B01AF5FCD
:10078C00A0938B01D1DFA881AA3089F1E0918A0175
:10079C00EF5FE0938A01A89AA881BADFA89827C0D6
:1007AC00AA93E4B3E06FE4BBA29AA09AA19AAA9888
:1007BC00A898A998E881E0938C01E058E09388010F
:1007CC00E881E054E0938901A4E1B0E00E94CD04FB
:1007DC008AD089D088D0A0E287DF0BD0A8E298DF3E
:1007EC00A4E096DFA5E894DFA6E092DFAEDF2196C9
:1007FC00089588EC90E00197F1F708950E94B504F4
:10080C00F8CFA1E0B0E00E940E05E03008950E9400
:10081C00FB04F7CFA0E6B1E0EE0FFF1F0895AE0F7B
:10082C00BF1F0E9426050895EA93A0E07DCFEAE061
:10083C00F0E00E94FB04DF01EAE0F0E00E9400051A
:10084C00E05DAE2F8ECFEAE0F0E00E940005E05DA7
:10085C00AE2F87CF0E94FB04DF01F5CFE4E6F0E07A
:10086C00F9CFEA93A1E060CFA0918001B091810112
:10087C000895A0918201B09183010895F401AFEF26
:10088C00BFEF0E94E304DF010895EFEFF0E0FA936D
:10089C00EA930895E0E0F0E0FA93EA93E1E0FFEFE9
:1008AC00FA93EA930895E1E0FFEFFA93EA9308953F
:1008BC00E0E8F0E0FA93EA930895E0E8FFEFFA93AA
:1008CC00EA930895E0E0F0E0FA93EA930895FA933E
:1008DC00EA93E0918401F0918501089519DFA3E07A
:1008EC00B0E00C94CD04A0E3FFDE83CFC098C19898
:1008FC00B89AB99815C0B998B898EE270000B19B72
:10090C000895B09B089504D0B99A02D0B89AE1E04A
:10091C006DE007C0B99AB89A03D0B898F9DFB998C6
:10092C006BE16A95F1F7089578E0B898F1DFB09B28
:10093C00FECFEEDF8894B1990894B89AF1DFEE1FE0
:10094C007A9599F77A2F772311F4B99801C0B99A4F
:10095C00DFDFB898E5DFB89ADBDFB998D9CF78E05C
:10096C00AA0F10F4B99801C0B99ADADFB898D0DFA1
:10097C00B09BFECFCDDFB89A7A9591F7B998C8DFC6
:10098C00B898CEDFE1E0B199EE27B89AC1CF1096B6
:10099C0039F080ED97E00197F1F7A8951197C9F719
:1009AC000895F195E195F0400895FA9FF02DEB9F95
:1009BC00F00DEA9FE02DF10D089534D0F6DF0EF422
:1009CC00F0DF08950024112490E1AA0FBB1F001C36
:1009DC00111C0E1A1F0A18F40E0E1F1E01C0A16066
:1009EC009A9599F7FD01D00108951CD0EBDF0EF418
:1009FC00D8DF0895E894B7FF04C0A095B095119680
:100A0C006894F7FDCEDFDEDFFD010EF4CADF08953A
:100A1C00E894F7FF02C0C5DF6894EA23FB230EF4C9
:100A2C00C0DF0895E894F7FF02C0BBDF6894B7FFFE
:100A3C0006C0A095B095119600F8039400FA08959D
:100A4C00ED91FC911197089500240A160B06089558
:00000001FF
