:060000000C942F000C948B
:1000060000000C9400000C9400000C9400000C946A
:1000160000000C9400000C9400000C9400000C945A
:1000260000000C9400000C9400000C9400000C944A
:1000360000000C9400000C9400000C9400000C943A
:1000460000000C9400000C9400000C94000080C08A
:1000560002008C0154000000F894EE27ECBBF1E09E
:10006600FBBFEBBFE5BF8DE0A2E0BB27ED938A9512
:10007600E9F780E094E0A0E6ED930197E9F7E6E57D
:10008600F0E085919591009761F0A591B591059065
:100096001590BF01F00105900D920197E1F7FB0164
:1000A600F0CFEFE5EDBFE4E0EEBFC0E6D1E00C94A3
:1000B6006D03AA931A930E94F3040E947D050E9481
:1000C600F304A0EC0E94F804A9810E94F8040E949F
:1000D6007D050E94F304A1EC0E94F804A0E00E94B2
:1000E60096051E2F0E94F3040E948C050E94F304BD
:1000F600E12F18810C949D04AA93E881E064E7B986
:100106008BE18A95F1F7369A349BFECF349AE4B1A7
:10011600F5B10C94F104A1E0CCDF0E2E1124A0E081
:10012600B0E00E94FB042D0100244014500424F486
:10013600F201E150FF4F2F01E0E8F0E0E415F5058C
:1001460024F4EFEFF0E04E1A5F0AE0E8F0E04E1616
:100156005F060CF4220100244014500474F0E5E01C
:100166000E940105ABE20E94AB04D2010E94040585
:10017600D2010E941005D20114C00024401450047C
:10018600A4F4E5E00E940105ADE20E94AB040E94E2
:100196001C050E9404050E941C050E9410050E9471
:1001A6001C05EAE0F0E00E94230508956624772402
:1001B600E0E1F0E06E167F060CF043C0F3010E940A
:1001C600280511F4C49801C0C49AD301E2E0F0E016
:1001D6000E942E0511F4C59801C0C59AD301E4E02A
:1001E600F0E00E942E0511F4C69801C0C69AD3010C
:1001F600E8E0F0E00E942E0511F4C79801C0C79A06
:10020600F3010E943105EA0FFB1FFF93EF93A0E075
:1002160073DFAF91BF91ED93FC93F3010E9431051B
:10022600AE0FBF1F0D901C90F4010E9431050E9475
:1002360036050E161F060CF44301F30131963F01F5
:10024600B7CFE0E00E940105D4010E941005D40159
:100256000E943B05AAE30E94AB04F4010E9431050B
:100266000E943605DF010E941005F4010E94310547
:100276000E943605DF010E943B05A1E03DDF5F01DC
:10028600E0E00E943E05D5010E940405D5010E94CA
:100296001005D5010E943B05A2E02EDF6F01E4E0C8
:1002A6000E943E05D6010E940405D6010E94100553
:1002B600D6010E943B05A3E01FDFE0938001F09387
:1002C6008101E8E00E943E050E9441050E94040566
:1002D6000E9441050E9410050E9441050E943B05AF
:1002E600A4E00ADF0F01A4E0B0E00E94FB04A093A3
:1002F6008401B0938501EDE00E9401050E94460548
:100306000E9404050E9446050E941005A5E0F4DE41
:100316000F01A6E0B0E00E94FB04A0938601B09313
:100326008701EBE00E943E05A0918601B09187010E
:100336000E940405A0918601B09187010E941005D4
:10034600A6E0DADE0F01A8E0B0E00E94FB04A0936D
:100356008A01B0938B01EEE00E943E05A0918A01CE
:10036600B0918B010E940405A0918A01B0918B0186
:100376000E941005A7E0C0DE0F01A2E0B0E00E94D7
:10038600FB04A0938801B0938901EAE00E9401056D
:10039600A0918801B09189010E940405A09188016D
:1003A600B09189010E941005E0918001F0918101D0
:1003B600EA19FB09E0938201F09383010895BA9349
:1003C600AA93F201AE81BF81EA0FFB1FEE83FF8382
:1003D600F201AC81BD81EA0FFB1FEC83FD83F201C4
:1003E600AA81BB81EA0FFB1FEA83FB83F201A88186
:1003F600B981EA0FFB1FE883F983AE81BF81A03084
:10040600E1E0BE0724F0EFEFF0E0EE83FF83AE817C
:10041600BF81A130EFEFBE0724F4E1E0FFEFEE83EA
:10042600FF83AC81BD81A030E1E0BE0724F0EFEF91
:10043600F0E0EC83FD83AC81BD81A130EFEFBE0718
:1004460024F4E1E0FFEFEC83FD83AA81BB81A030B9
:10045600E1E0BE0724F0EFEFF0E0EA83FB83AA8138
:10046600BB81A130EFEFBE0724F4E1E0FFEFEA83A2
:10047600FB83A881B981A030E1E0BE0724F0EFEF4D
:10048600F0E0E883F983A881B981A130EFEFBE07D8
:1004960024F4E1E0FFEFE883F983AE81BF810E9497
:1004A6004F061CF49398EE8108C0AE81BF810E946E
:1004B6004F0624F0939AEE81E150E3BDAC81BD81F5
:1004C6000E944F0624F49298EC81FD810AC0AC810B
:1004D600BD810E944F063CF0929AEC81FD81E1506D
:1004E600FF4FFBBDEABDAA81BB810E944F0624F4E3
:1004F6009198EA81FB810AC0AA81BB810E944F06BE
:100506003CF0919AEA81FB81E150FF4FF9BDE8BDCD
:10051600A881B9810E944F061CF49098E88108C012
:10052600A881B9810E944F0624F0909AE881E15093
:10053600ECBF28960895BA93AA93E881F98130977B
:1005460049F40E944B050E944B050E945005A1E00C
:10055600BFEFBEC0A881B981119739F40E944B053F
:100566000E945505A0E8BFEFB3C0A881B9811297D4
:1005760039F40E944B050E945A05E1E0FFEFA4C042
:10058600A881B981139741F40E944B050E945F052B
:100596000E945005A0E89BC0A881B981149741F438
:1005A6000E944B050E9450050E945005AFEF8FC078
:1005B600A881B981159731F40E9455050E945F05FF
:1005C600AFEF85C0A881B981169741F40E945A05FC
:1005D6000E9450050E945A05AFEF79C0A881B981E3
:1005E600179741F40E945F050E9450050E9464051A
:1005F600AFEF6DC0A881B981189741F40E945005EC
:100606000E9450050E944B05AFEF61C0A881B981D9
:10061600199741F40E9450050E945F050E944B0500
:10062600A0E855C0A881B9811A9739F40E945005EF
:100636000E945A05EFEFF0E047C0A881B9811B97E9
:1006460049F40E9450050E9464050E944B05A0E8EB
:10065600BFEF3EC0A881B9811C9749F40E9450059E
:100666000E944B050E944B05A1E0BFEF31C0A88157
:10067600B9811D9749F40E945F050E944B050E94AF
:100686006405A1E0BFEF24C0A881B9811E9749F493
:100696000E945A050E944B050E945A05A1E0BFEF31
:1006A60017C0A881B9811F9749F40E9464050E946A
:1006B6004B050E945F05A1E0BFEF0AC00E945A05E4
:1006C6000E945A05E0E0F0E0FA93EA93A0E0B0E079
:1006D60076DE30C1E0E0EABBEBBBECEFE7BBE0E087
:1006E600E8BBE4BBE5BBEFEFE1BBE0E0E2BBEBE67A
:1006F600E3BFE0E0E2BFECBFE1EAEFBDEBE0EEBD59
:10070600E0E0EDBDECBDE7BDE6BDEBBDEABDE9BD94
:10071600E8BDE2BDECE6E5BDE0E0E4BDE3BDE9BF72
:10072600E5BFE4BFEAB9E0E8E8B9E0E4E7B9E7E83D
:10073600E6B9E0E0E0BFEDB9E6BF0E947805A0E1CA
:1007460026D1A8EBBBE00E94C9059B9B1FC0A1E078
:10075600B0DCA0E0B0E0F0E00E943606A7E0CCDC1A
:10076600A2E0B0E00E943606A4E0C6DCA4E0B0E059
:100776000E943606A6E0C0DCA8E0B0E00E9436067D
:10078600A5E0BADCA6E0B0E00E943606C4DC0EDDC9
:10079600E4E1F0E0E415F5052CF0ECEEFFEF4E1683
:1007A6005F060CF406C0F201ACEFBFEF0E94DF0556
:1007B60003C0F2010E94D3052F01F4014FD153D19A
:1007C600E032A3E0FA070CF05FC05DD1D3972CF1BD
:1007D600E8E0F0E08E169F0604F5E8DC9CDC4ED1DE
:1007E600A139E1E0BE076CF0E6E5FFEFFA93EA9384
:1007F600EAEAF0E0FA93EA93FA93EA93A6E5BFEF02
:100806000AC03CD1AA3FE0E0BE073CF050D14FD130
:100816004ED1A0E0B0E0D3DDDBCF082C092819F4D7
:10082600A0E0B0E02FC0E1E0F0E0E815F90519F42A
:10083600A1E0B0E027C0EFE0F0E0E815F90519F413
:10084600AFE0B0E01FC0E2E0F0E0E815F90519F40A
:10085600A3E0B0E017C0EEE0F0E0E815F90519F402
:10086600ADE0B0E00FC0E8E0F0E0E815F9051CF0F7
:10087600D401129607C0E8E0F0E0E815F9051CF48B
:10088600D401129758DE25C0E8ECF0E0CE16DF065C
:10089600D4F4A0918201B0918301E6E5FFEFEA1B53
:1008A600FB0B14D1EA5AF04011D1E655FF4FFA93EB
:1008B600EA93A0918201B0918301EAEAF0E0EA1B93
:1008C600FB0BDF0105C0F3D0F2D0F1D0A0E0B0E021
:1008D60076DD3BCFFFCFAA93E5B3EF70AE2FE8816D
:1008E600E07FEA2BE5BB8DE08A95F1F7AA9A8DE0C9
:1008F6008A95F1F7AA988DE08A95F1F76FC0AA93C9
:10090600A881E9DFE881E295E883A881E4DF85E84C
:100916008A95F1F763C0AA93E881F0E0E457FE4FA9
:10092600E081A981AE0FEBDFE981E0939001E881D8
:10093600E093910122960895A2E0CFD0ACE0DFDFEC
:10094600A1E0CBD0E0E0E0939101E093900108951F
:10095600AA93A881AA3031F0E0919201A09190016A
:10096600AE1758F0E0E0EA93A0919101AF5FA09333
:100976009101D1DFA881AA3089F1E0919001EF5F62
:10098600E0939001A89AA881BADFA89827C0AA93F5
:10099600E4B3E06FE4BBA29AA09AA19AAA98A89899
:1009A600A998E881E0939201E058E0938E01E881EE
:1009B600E054E0938F01A4E1B0E00E94C90592D013
:1009C60091D090D0A0E287DF0BD0A8E298DFA4E018
:1009D60096DFA5E894DFA6E092DFAEDF21960895C4
:1009E60088EC90E00197F1F708950E94B105F8CFE1
:1009F6000E942606D001AE1BBF0B0895EA93A0E025
:100A06008ACFE4E6F0E00E94F705DF01EAE0F0E0D5
:100A16000E94FC05E05DAE2F9BCFEAE0F0E00E946D
:100A2600F705DF01EAE0F0E00E94FC05E05DAE2F8D
:100A36008FCFF201AFEFBFEF0E94DF05DF01089510
:100A46000E94FC05E05DAE2F83CFA1E0B0E00E94DE
:100A56000A06E03008950E94F705F7CFA0E6B1E058
:100A6600EE0FFF1F0895AE0FBF1F0E9422060895C6
:100A7600EAE0F0E0E5CFEA93A1E04DCFA091800156
:100A8600B09181010895A0918401B09185010895E6
:100A9600EFEFF0E0FA93EA930895E1E0FFEFFA93BF
:100AA600EA930895E0E8F0E0FA93EA93F6CFE0E0FF
:100AB600F0E0FA93EA930895E0E8FFEFFA93EA93F9
:100AC6000895E0E8F0E0FA93EA930895FA93EA933A
:100AD600E0918201F0918301089511DFA3E0B0E077
:100AE6000C94C905A0E3F7DE7BCFC098C198B89AED
:100AF600B99815C0B998B898EE270000B19B08952B
:100B0600B09B089504D0B99A02D0B89AE1E06DE09E
:100B160007C0B99AB89A03D0B898F9DFB9986BE1CB
:100B26006A95F1F7089578E0B898F1DFB09BFECFAB
:100B3600EEDF8894B1990894B89AF1DFEE1F7A95A2
:100B460099F77A2F772311F4B99801C0B99ADFDFA4
:100B5600B898E5DFB89ADBDFB998D9CF78E0AA0F65
:100B660010F4B99801C0B99ADADFB898D0DFB09B13
:100B7600FECFCDDFB89A7A9591F7B998C8DFB898C5
:100B8600CEDFE1E0B199EE27B89AC1CF109639F0E1
:100B960080ED97E00197F1F7A8951197C9F70895A9
:100BA600F195E195F0400895FA9FF02DEB9FF00D39
:100BB600EA9FE02DF10D089534D0F6DF0EF4F0DF54
:100BC60008950024112490E1AA0FBB1F001C111CDC
:100BD6000E1A1F0A18F40E0E1F1E01C0A1609A9568
:100BE60099F7FD01D00108951CD0EBDF0EF4D8DF94
:100BF6000895E894B7FF04C0A095B095119668943F
:100C0600F7FDCEDFDEDFFD010EF4CADF0895E894BE
:100C1600F7FF02C0C5DF6894EA23FB230EF4C0DFAA
:100C26000895E894F7FF02C0BBDF6894B7FF06C0DB
:100C3600A095B095119600F8039400FA0895ED91E9
:100C4600FC9111970895119602D0FE2F1197E19904
:100C5600FECFFF93FFB7F894AEBBBFBBE09AEDB3F0
:100C6600FFBFFF91089507D01196EF93EF2F03D0A2
:100C7600EF9111970895E19B02C0A895FCCF9FB70D
:100C8600F894AEBBBFBBE09A8DB3E81719F0EDBB85
:100C9600E29AE19A9FBF089500240A160B0608956A
:00000001FF
