:0C0000000C942F000C9400000C940000E5
:10000C000C9400000C9400000C9400000C94000064
:10001C000C9400000C9400000C9400000C94000054
:10002C000C9400000C9400000C9400000C94000044
:10003C000C9400000C9400000C9400000C94000034
:10004C000C9400000C94000080C00200600154006D
:10005C000000F894EE27ECBBF1E0FBBFEBBFE5BF73
:10006C008DE0A2E0BB27ED938A95E9F780E094E060
:10007C00A0E6ED930197E9F7E6E5F0E0859195911F
:10008C00009761F0A591B59105901590BF01F00115
:10009C0005900D920197E1F7FB01F0CFEFE5EDBF75
:1000AC00E4E0EEBFC0E6D1E00C94A300BA93AA93AF
:1000BC00DFD01CF49398EE8105C0DAD024F093982D
:1000CC00EE81E150E3BDAC81BD810E94AA0124F414
:1000DC009298EC81FD810AC0AC81BD810E94AA017D
:1000EC003CF09298EC81FD81E150FF4FFBBDEABDE5
:1000FC00AA81BB810E94AA0124F49198EC81FD8114
:10010C000AC0AA81BB810E94AA013CF09198EA81A5
:10011C00FB81E150FF4FF9BDE8BDA881B9810E9478
:10012C00AA011CF4C398E88105C0A2D024F0C3989E
:10013C00EE81E150ECBF28960895E0E0EABBEBBB02
:10014C00ECEFE7BBE0E0E8BBE4BBE5BBEFEFE1BB0A
:10015C00E0E0E2BBEBE6E3BFE0E0E2BFECBFE1EAEC
:10016C00EFBDEBE0EEBDE0E0EDBDECBDE7BDE6BD07
:10017C00EBBDEABDE9BDE8BDE2BDECE6E5BDE0E006
:10018C00E4BDE3BDE9BFE5BFE4BFEAB9E0E8E8B927
:10019C00E0E4E7B9E7E8E6B9E0E0E0BFEDB9E6BFD7
:1001AC000E944F01A0E139D0EFEFF0E0FA93EA930F
:1001BC00E0E0F0E0FA93EA93FA93EA93A0E0B0E07F
:1001CC0075DFF2CFFFCFAA93E5B3EF70AE2FE881C6
:1001DC00E07FEA2BE5BB8DE08A95F1F7AA9A8DE0DA
:1001EC008A95F1F7AA988DE08A95F1F73FC0AA930A
:1001FC00A881E9DFE881E295E883A881E4DF85E85E
:10020C008A95F1F733C0A2E038D0ACE0F0DFA1E082
:10021C0034D0E0E04E2E5E2E0895AA93E4B3E06F46
:10022C00E4BBA29AA09AA19AAA98A898A9987880B7
:10023C00E881E058E0936201E881E054E0936301C7
:10024C00A4E1B0E00E94A0011DD01CD01BD0A0E204
:10025C00BADF88EC90E00197F1F7A8E2C8DFA4E0E0
:10026C00C6DFA5E8C4DFA6E0C2DFCDDF2196089586
:10027C00AE81BF810E94AA010895B9DFA3E0B0E06E
:10028C000C94A001A0E39FDF88EC90E00197F1F7BC
:10029C000895C098C198B89AB99815C0B998B898EB
:1002AC00EE270000B19B0895B09B089504D0B99A35
:1002BC0002D0B89AE1E06DE007C0B99AB89A03D0C1
:1002CC00B898F9DFB9986BE16A95F1F7089578E081
:1002DC00B898F1DFB09BFECFEEDF8894B19908940B
:1002EC00B89AF1DFEE1F7A9599F77A2F772311F4EC
:1002FC00B99801C0B99ADFDFB898E5DFB89ADBDFAF
:10030C00B998D9CF78E0AA0F10F4B99801C0B99A6E
:10031C00DADFB898D0DFB09BFECFCDDFB89A7A95F4
:10032C0091F7B998C8DFB898CEDFE1E0B199EE2724
:10033C00B89AC1CF109639F080ED97E00197F1F79C
:10034C00A8951197C9F7089500240A160B0608956D
:00000001FF
