:080000000C942F000C94000089
:100008000C9400000C9400000C9400000C94000068
:100018000C9400000C9400000C9400000C94000058
:100028000C9400000C9400000C9400000C94000048
:100038000C9400000C9400000C9400000C94000038
:100048000C9400000C9400000C94000080C0020086
:10005800860154000000F894EE27ECBBF1E0FBBFEA
:10006800EBBFE5BF8DE0A2E0BB27ED938A95E9F7EA
:1000780080E094E0A0E6ED930197E9F7E6E5F0E08B
:1000880085919591009761F0A591B591059015908E
:10009800BF01F00105900D920197E1F7FB01F0CF48
:1000A800EFE5EDBFE4E0EEBFC0E6D1E00C94260337
:1000B800AA931A930E9450040E94CF040E945004ED
:1000C800A0EC0E945504A9810E9455040E94CF0407
:1000D8000E945004A1EC0E945504A0E00E94E8048C
:1000E8001E2F0E9450040E94DE040E945004E12F3B
:1000F80018810C94FA03AA93E881E064E7B98BE1CC
:100108008A95F1F7369A349BFECF349AE4B1F5B16B
:100118000C944E04A1E0CCDFF0E0E619F7092F01BA
:100128000024401450041CF4E150FF4F2F01E0E874
:10013800F0E0E415F50524F4EFEFF0E04E1A5F0A5D
:10014800E0E8F0E04E165F060CF4220100244014AB
:10015800500474F0E8E00E945804ABE20E940804DE
:10016800D2010E945B04D2010E946704D20114C02C
:10017800002440145004A4F4E8E00E945804ADE2BE
:100188000E9408040E9473040E945B040E94730486
:100198000E9467040E947304EAE0F0E00E947A0477
:1001A800089588249924E0E1F0E08E169F060CF06B
:1001B80043C0F4010E947F0411F4C49801C0C49A9A
:1001C800D401E2E0F0E00E94850411F4C59801C072
:1001D800C59AD401E4E0F0E00E94850411F4C698C1
:1001E80001C0C69AD401E8E0F0E00E94850411F449
:1001F800C79801C0C79AF4010E948804EA0FFB1F40
:10020800FF93EF93A0E077DFAF91BF91ED93FC935D
:10021800F4010E948804AE0FBF1F0D901C90F501D9
:100228000E9488040E948D040E161F060CF45401C7
:10023800F40131964F01B7CFE0E00E945804D50190
:100248000E946704D5010E949204AAE30E94080450
:10025800F5010E9488040E948D04DF01E8EEF3E0B6
:100268000E944905DF010E949204F5010E9488045A
:100278000E948D04DF010E945B04F5010E9488043E
:100288000E948D04DF010E946704F5010E94880422
:100298000E948D04DF010E949204A1E02CDF6F010F
:1002A800E0E00E949504D6010E945B04D6010E94FA
:1002B8006704D6010E949204A2E01DDFE09380014A
:1002C800F0938101E4E00E9495040E9498040E9442
:1002D8005B040E9498040E9467040E9498040E948C
:1002E8009204A3E008DFE0938201F0938301E8E041
:1002F8000E9495040E949D040E945B040E949D0434
:100308000E9467040E949D040E949204E091820169
:10031800F0918301EC19FD09E0938401F0938501C4
:100328000895BA93AA93F201AE81BF81EA0FFB1F29
:10033800EE83FF83F201AC81BD81EA0FFB1FEC83E2
:10034800FD83F201AA81BB81EA0FFB1FEA83FB83CD
:10035800F201A881B981EA0FFB1FE883F983AE8116
:10036800BF81A030E1E0BE0724F0EFEFF0E0EE83BC
:10037800FF83AE81BF81A130EFEFBE0724F4E1E037
:10038800FFEFEE83FF83AC81BD81A030E1E0BE07C3
:1003980024F0EFEFF0E0EC83FD83AC81BD81A13068
:1003A800EFEFBE0724F4E1E0FFEFEC83FD83AA81C1
:1003B800BB81A030E1E0BE0724F0EFEFF0E0EA8374
:1003C800FB83AA81BB81A130EFEFBE0724F4E1E0F3
:1003D800FFEFEA83FB83A881B981A030E1E0BE0783
:1003E80024F0EFEFF0E0E883F983A881B981A13028
:1003F800EFEFBE0724F4E1E0FFEFE883F983AE8175
:10040800BF810E9478051CF49398EE8108C0AE81E4
:10041800BF810E94780524F0939AEE81E150E3BDF4
:10042800AC81BD810E94780524F49298EC81FD810D
:100438000AC0AC81BD810E9478053CF0929AEC819B
:10044800FD81E150FF4FFBBDEABDAA81BB810E943F
:10045800780524F49198EA81FB810AC0AA81BB81BE
:100468000E9478053CF0919AEA81FB81E150FF4FA8
:10047800F9BDE8BDA881B9810E9478051CF490985F
:10048800E88108C0A881B9810E94780524F0909A73
:10049800E881E150ECBF289608950A2C0B2839F41E
:1004A8000E94A2040E94A204E1E0FFEFC5C0E1E0BF
:1004B800F0E0EA15FB0549F40E94A2040E94A70493
:1004C8000E94AC04A0E8B0E0BBC0E2E0F0E0EA15AE
:1004D800FB0549F40E94A2040E94AC040E94AC04EB
:1004E800AFEFB0E0ADC0E3E0F0E0EA15FB0549F49A
:1004F8000E94B1040E94AC040E94A704AFEFB0E0D0
:100508009FC0E4E0F0E0EA15FB0549F40E94B60458
:100518000E94AC040E94B604AFEFB0E091C0E5E0E1
:10052800F0E0EA15FB0549F40E94A7040E94AC0418
:100538000E94B104AFEFB0E083C0E6E0F0E0EA1556
:10054800FB0549F40E94AC040E94AC040E94A2047A
:10055800AFEFB0E075C0E7E0F0E0EA15FB0549F45D
:100568000E94AC040E94A7040E94A204A0E8B0E084
:1005780067C0E8E0F0E0EA15FB0549F40E94AC0426
:100588000E94B6040E94A204A0E0B0E059C0E9E0CD
:10059800F0E0EA15FB0549F40E94A7040E94AC04A8
:1005A8000E94B104A9E1B0E04BC0EAE0F0E0EA152E
:1005B800FB0549F40E94AC040E94AC040E94A2040A
:1005C800AFEFB0E03DC0EBE0F0E0EA15FB0549F421
:1005D8000E94AC040E94A7040E94A204A0E8B0E014
:1005E8002FC0ECE0F0E0EA15FB0541F40E94AC04F2
:1005F8000E94B604A3D1A0E0B0E022C0EDE0F0E094
:10060800EA15FB0531F4A4D1A8D198D1A0E8BFEF31
:1006180017C0EEE0F0E0EA15FB0529F499D18ED178
:10062800EFEFF0E009C0EFE0F0E0EA15FB0549F470
:100638008AD184D1E0E8F0E0FA93EA93A1E0BFEF31
:1006480070DE0895E0E0EABBEBBBECEFE7BBE0E06F
:10065800E8BBE4BBE5BBEFEFE1BBE0E0E2BBEBE608
:10066800E3BFE0E0E2BFECBFE1EAEFBDEBE0EEBDE7
:10067800E0E0EDBDECBDE7BDE6BDEBBDEABDE9BD23
:10068800E8BDE2BDECE6E5BDE0E0E4BDE3BDE9BF01
:10069800E5BFE4BFEAB9E0E8E8B9E0E4E7B9E7E8CC
:1006A800E6B9E0E0E0BFEDB9E6BF0E94CA04A0E108
:1006B800CAD0A8EBBBE00E941B059B9B04C0A1E02D
:1006C800F7DC6E2E772426DD6CDDE4E1F0E0E4153E
:1006D800F5052CF0ECEEFFEF4E165F060CF406C0A5
:1006E800F201ACEFBFEF0E94310503C0F2010E9496
:1006F80025052F01F50108D10CD1E032A3E0FA0756
:100708008CF4EAEFF0E0EC15FD0564F4E8E0F0E0C5
:10071800EA15FB052CF4EFE0F0E0EA15FB050CF414
:1007280001C001C001C028C0F501EED0F2D0E0320E
:10073800A3E0FA0714F4B1DE28C0F6D0A83CE0E044
:10074800BE07D4F4A0918401B0918501E1E0FFEFE8
:10075800EA1BFB0B0CD1EF5FF04009D1E150FF4FD2
:10076800FA93EA93A0918401B0918501EFEFF0E04C
:10077800EA1BFB0BDF0108C0E0E0F0E0FA93EA9324
:10078800F1D0F0D0A0E0B0E0CCDD97CFFFCFAA93B6
:10079800E5B3EF70AE2FE881E07FEA2BE5BB8DE093
:1007A8008A95F1F7AA9A8DE08A95F1F7AA988DE0D3
:1007B8008A95F1F76FC0AA93A881E9DFE881E295ED
:1007C800E883A881E4DF85E88A95F1F763C0AA93F6
:1007D800E881F0E0EA57FE4FE081A981AE0FEBDF38
:1007E800E981E0938A01E881E0938B0122960895DC
:1007F800A2E0C4D0ACE0DFDFA1E0C0D0E0E0E0934D
:100808008B01E0938A010895AA93A881AA3031F058
:10081800E0918C01A0918A01AE1758F0E0E0EA93CC
:10082800A0918B01AF5FA0938B01D1DFA881AA3083
:1008380089F1E0918A01EF5FE0938A01A89AA88183
:10084800BADFA89827C0AA93E4B3E06FE4BBA29AE2
:10085800A09AA19AAA98A898A998E881E0938C01EF
:10086800E058E0938801E881E054E0938901A4E12D
:10087800B0E00E941B0587D086D085D0A0E287DF34
:100888000BD0A8E298DFA4E096DFA5E894DFA6E005
:1008980092DFAEDF2196089588EC90E00197F1F79A
:1008A80008950E940305F8CFEA93A0E090CFE4E60C
:1008B800F0E00E944905DF01EAE0F0E00E944E0501
:1008C800E05DAE2FA1CFEAE0F0E00E944905DF012C
:1008D800EAE0F0E00E944E05E05DAE2F95CFF20110
:1008E800AFEFBFEF0E943105DF0108950E944E056A
:1008F800E05DAE2F89CFA1E0B0E00E945C05E0305A
:1009080008950E944905F7CFA0E6B1E0EE0FFF1F5A
:100918000895AE0FBF1F0E9474050895EAE0F0E045
:10092800E5CFEA93A1E053CFA0918001B091810176
:100938000895A0918201B09183010895EFEFF0E04E
:10094800FA93EA930895E0E8FFEFFA93EA9308959B
:10095800E1E0FFEFFA93EA930895E0E8F0E0FA9314
:10096800EA930895E0E0F0E0FA93EA930895FA93A1
:10097800EA93E0918401F091850108951CDFA3E0DA
:10098800B0E00C941B05A0E302DF86CFC098C198A5
:10099800B89AB99815C0B998B898EE270000B19BD5
:1009A8000895B09B089504D0B99A02D0B89AE1E0AE
:1009B8006DE007C0B99AB89A03D0B898F9DFB9982A
:1009C8006BE16A95F1F7089578E0B898F1DFB09B8C
:1009D800FECFEEDF8894B1990894B89AF1DFEE1F44
:1009E8007A9599F77A2F772311F4B99801C0B99AB3
:1009F800DFDFB898E5DFB89ADBDFB998D9CF78E0C0
:100A0800AA0F10F4B99801C0B99ADADFB898D0DF04
:100A1800B09BFECFCDDFB89A7A9591F7B998C8DF29
:100A2800B898CEDFE1E0B199EE27B89AC1CF109619
:100A380039F080ED97E00197F1F7A8951197C9F77C
:100A48000895F195E195F0400895FA9FF02DEB9FF8
:100A5800F00DEA9FE02DF10D089534D0F6DF0EF485
:100A6800F0DF08950024112490E1AA0FBB1F001C99
:100A7800111C0E1A1F0A18F40E0E1F1E01C0A160C9
:100A88009A9599F7FD01D00108951CD0EBDF0EF47B
:100A9800D8DF0895E894B7FF04C0A095B0951196E3
:100AA8006894F7FDCEDFDEDFFD010EF4CADF08959E
:100AB800E894F7FF02C0C5DF6894EA23FB230EF42D
:100AC800C0DF0895E894F7FF02C0BBDF6894B7FF62
:100AD80006C0A095B095119600F8039400FA089501
:100AE800ED91FC911197089500240A160B060895BC
:00000001FF
